{"src/LiquidationExecutor.sol":{"LiquidationExecutor":{"abi":[{"type":"constructor","inputs":[{"name":"owner_","type":"address","internalType":"address"},{"name":"operator_","type":"address","internalType":"address"},{"name":"weth_","type":"address","internalType":"address"},{"name":"aavePool_","type":"address","internalType":"address"},{"name":"balancerVault_","type":"address","internalType":"address"},{"name":"paraswapAugustus_","type":"address","internalType":"address"},{"name":"uniV2Router_","type":"address","internalType":"address"},{"name":"uniV3Router_","type":"address","internalType":"address"},{"name":"allowedTargets_","type":"address[]","internalType":"address[]"}],"stateMutability":"nonpayable"},{"type":"receive","stateMutability":"payable"},{"type":"function","name":"ACTION_PAY_COINBASE","inputs":[],"outputs":[{"name":"","type":"uint8","internalType":"uint8"}],"stateMutability":"view"},{"type":"function","name":"FLASH_PROVIDER_BALANCER","inputs":[],"outputs":[{"name":"","type":"uint8","internalType":"uint8"}],"stateMutability":"view"},{"type":"function","name":"FLASH_PROVIDER_MORPHO","inputs":[],"outputs":[{"name":"","type":"uint8","internalType":"uint8"}],"stateMutability":"view"},{"type":"function","name":"PROTOCOL_AAVE_V2","inputs":[],"outputs":[{"name":"","type":"uint8","internalType":"uint8"}],"stateMutability":"view"},{"type":"function","name":"PROTOCOL_AAVE_V3","inputs":[],"outputs":[{"name":"","type":"uint8","internalType":"uint8"}],"stateMutability":"view"},{"type":"function","name":"PROTOCOL_INTERNAL","inputs":[],"outputs":[{"name":"","type":"uint8","internalType":"uint8"}],"stateMutability":"view"},{"type":"function","name":"PROTOCOL_MORPHO_BLUE","inputs":[],"outputs":[{"name":"","type":"uint8","internalType":"uint8"}],"stateMutability":"view"},{"type":"function","name":"aavePool","inputs":[],"outputs":[{"name":"","type":"address","internalType":"address"}],"stateMutability":"view"},{"type":"function","name":"aaveV2LendingPool","inputs":[],"outputs":[{"name":"","type":"address","internalType":"address"}],"stateMutability":"view"},{"type":"function","name":"acceptOwnership","inputs":[],"outputs":[],"stateMutability":"nonpayable"},{"type":"function","name":"allowedFlashProviders","inputs":[{"name":"","type":"uint8","internalType":"uint8"}],"outputs":[{"name":"","type":"address","internalType":"address"}],"stateMutability":"view"},{"type":"function","name":"allowedTargets","inputs":[{"name":"","type":"address","internalType":"address"}],"outputs":[{"name":"","type":"bool","internalType":"bool"}],"stateMutability":"view"},{"type":"function","name":"allowedV4Hooks","inputs":[{"name":"","type":"address","internalType":"address"}],"outputs":[{"name":"","type":"bool","internalType":"bool"}],"stateMutability":"view"},{"type":"function","name":"balancerVault","inputs":[],"outputs":[{"name":"","type":"address","internalType":"address"}],"stateMutability":"view"},{"type":"function","name":"configureMorpho","inputs":[{"name":"morpho","type":"address","internalType":"address"}],"outputs":[],"stateMutability":"nonpayable"},{"type":"function","name":"execute","inputs":[{"name":"planData","type":"bytes","internalType":"bytes"}],"outputs":[],"stateMutability":"nonpayable"},{"type":"function","name":"morphoBlue","inputs":[],"outputs":[{"name":"","type":"address","internalType":"address"}],"stateMutability":"view"},{"type":"function","name":"onMorphoFlashLoan","inputs":[{"name":"amount","type":"uint256","internalType":"uint256"},{"name":"data","type":"bytes","internalType":"bytes"}],"outputs":[],"stateMutability":"nonpayable"},{"type":"function","name":"operator","inputs":[],"outputs":[{"name":"","type":"address","internalType":"address"}],"stateMutability":"view"},{"type":"function","name":"owner","inputs":[],"outputs":[{"name":"","type":"address","internalType":"address"}],"stateMutability":"view"},{"type":"function","name":"paraswapAugustusV6","inputs":[],"outputs":[{"name":"","type":"address","internalType":"address"}],"stateMutability":"view"},{"type":"function","name":"pause","inputs":[],"outputs":[],"stateMutability":"nonpayable"},{"type":"function","name":"paused","inputs":[],"outputs":[{"name":"","type":"bool","internalType":"bool"}],"stateMutability":"view"},{"type":"function","name":"pendingOwner","inputs":[],"outputs":[{"name":"","type":"address","internalType":"address"}],"stateMutability":"view"},{"type":"function","name":"receiveFlashLoan","inputs":[{"name":"tokens","type":"address[]","internalType":"contract IERC20[]"},{"name":"amounts","type":"uint256[]","internalType":"uint256[]"},{"name":"feeAmounts","type":"uint256[]","internalType":"uint256[]"},{"name":"userData","type":"bytes","internalType":"bytes"}],"outputs":[],"stateMutability":"nonpayable"},{"type":"function","name":"renounceOwnership","inputs":[],"outputs":[],"stateMutability":"nonpayable"},{"type":"function","name":"rescueAllERC20","inputs":[{"name":"token","type":"address","internalType":"address"},{"name":"to","type":"address","internalType":"address"}],"outputs":[],"stateMutability":"nonpayable"},{"type":"function","name":"rescueERC20","inputs":[{"name":"token","type":"address","internalType":"address"},{"name":"to","type":"address","internalType":"address"},{"name":"amount","type":"uint256","internalType":"uint256"}],"outputs":[],"stateMutability":"nonpayable"},{"type":"function","name":"rescueERC20Batch","inputs":[{"name":"tokens","type":"address[]","internalType":"address[]"},{"name":"to","type":"address","internalType":"address"}],"outputs":[],"stateMutability":"nonpayable"},{"type":"function","name":"rescueETH","inputs":[{"name":"to","type":"address","internalType":"address payable"},{"name":"amount","type":"uint256","internalType":"uint256"}],"outputs":[],"stateMutability":"nonpayable"},{"type":"function","name":"setAaveV2LendingPool","inputs":[{"name":"pool","type":"address","internalType":"address"}],"outputs":[],"stateMutability":"nonpayable"},{"type":"function","name":"setFlashProvider","inputs":[{"name":"providerId","type":"uint8","internalType":"uint8"},{"name":"provider","type":"address","internalType":"address"}],"outputs":[],"stateMutability":"nonpayable"},{"type":"function","name":"setMorphoBlue","inputs":[{"name":"morpho","type":"address","internalType":"address"}],"outputs":[],"stateMutability":"nonpayable"},{"type":"function","name":"setV4HookAllowed","inputs":[{"name":"hook","type":"address","internalType":"address"},{"name":"allowed","type":"bool","internalType":"bool"}],"outputs":[],"stateMutability":"nonpayable"},{"type":"function","name":"transferOwnership","inputs":[{"name":"newOwner","type":"address","internalType":"address"}],"outputs":[],"stateMutability":"nonpayable"},{"type":"function","name":"uniV2Router","inputs":[],"outputs":[{"name":"","type":"address","internalType":"address"}],"stateMutability":"view"},{"type":"function","name":"uniV3Router","inputs":[],"outputs":[{"name":"","type":"address","internalType":"address"}],"stateMutability":"view"},{"type":"function","name":"unlockCallback","inputs":[{"name":"data","type":"bytes","internalType":"bytes"}],"outputs":[{"name":"","type":"bytes","internalType":"bytes"}],"stateMutability":"nonpayable"},{"type":"function","name":"unpause","inputs":[],"outputs":[],"stateMutability":"nonpayable"},{"type":"function","name":"weth","inputs":[],"outputs":[{"name":"","type":"address","internalType":"address"}],"stateMutability":"view"},{"type":"event","name":"BebopSwapExecuted","inputs":[{"name":"target","type":"address","indexed":true,"internalType":"address"},{"name":"srcToken","type":"address","indexed":true,"internalType":"address"},{"name":"amountIn","type":"uint256","indexed":false,"internalType":"uint256"},{"name":"repayDelta","type":"uint256","indexed":false,"internalType":"uint256"},{"name":"profitDelta","type":"uint256","indexed":false,"internalType":"uint256"}],"anonymous":false},{"type":"event","name":"CoinbasePaid","inputs":[{"name":"coinbase","type":"address","indexed":true,"internalType":"address"},{"name":"amount","type":"uint256","indexed":false,"internalType":"uint256"}],"anonymous":false},{"type":"event","name":"ConfigUpdated","inputs":[{"name":"key","type":"bytes32","indexed":true,"internalType":"bytes32"},{"name":"oldValue","type":"address","indexed":true,"internalType":"address"},{"name":"newValue","type":"address","indexed":true,"internalType":"address"}],"anonymous":false},{"type":"event","name":"FlashExecuted","inputs":[{"name":"providerId","type":"uint8","indexed":true,"internalType":"uint8"},{"name":"loanToken","type":"address","indexed":true,"internalType":"address"},{"name":"loanAmount","type":"uint256","indexed":false,"internalType":"uint256"}],"anonymous":false},{"type":"event","name":"FlashProviderUpdated","inputs":[{"name":"providerId","type":"uint8","indexed":true,"internalType":"uint8"},{"name":"oldProvider","type":"address","indexed":true,"internalType":"address"},{"name":"newProvider","type":"address","indexed":true,"internalType":"address"}],"anonymous":false},{"type":"event","name":"LiquidationExecuted","inputs":[{"name":"protocolId","type":"uint8","indexed":true,"internalType":"uint8"},{"name":"collateralAsset","type":"address","indexed":true,"internalType":"address"},{"name":"debtAsset","type":"address","indexed":true,"internalType":"address"},{"name":"debtToCover","type":"uint256","indexed":false,"internalType":"uint256"}],"anonymous":false},{"type":"event","name":"OwnershipTransferStarted","inputs":[{"name":"previousOwner","type":"address","indexed":true,"internalType":"address"},{"name":"newOwner","type":"address","indexed":true,"internalType":"address"}],"anonymous":false},{"type":"event","name":"OwnershipTransferred","inputs":[{"name":"previousOwner","type":"address","indexed":true,"internalType":"address"},{"name":"newOwner","type":"address","indexed":true,"internalType":"address"}],"anonymous":false},{"type":"event","name":"ParaswapSwapExecuted","inputs":[{"name":"srcToken","type":"address","indexed":true,"internalType":"address"},{"name":"dstToken","type":"address","indexed":true,"internalType":"address"},{"name":"amountIn","type":"uint256","indexed":false,"internalType":"uint256"},{"name":"amountOut","type":"uint256","indexed":false,"internalType":"uint256"}],"anonymous":false},{"type":"event","name":"Paused","inputs":[{"name":"account","type":"address","indexed":false,"internalType":"address"}],"anonymous":false},{"type":"event","name":"RepayExecuted","inputs":[{"name":"protocolId","type":"uint8","indexed":true,"internalType":"uint8"},{"name":"positionKeyHash","type":"bytes32","indexed":true,"internalType":"bytes32"},{"name":"asset","type":"address","indexed":true,"internalType":"address"},{"name":"amount","type":"uint256","indexed":false,"internalType":"uint256"}],"anonymous":false},{"type":"event","name":"Rescue","inputs":[{"name":"token","type":"address","indexed":true,"internalType":"address"},{"name":"to","type":"address","indexed":true,"internalType":"address"},{"name":"amount","type":"uint256","indexed":false,"internalType":"uint256"}],"anonymous":false},{"type":"event","name":"TwoLegSwapExecuted","inputs":[{"name":"intermediateToken","type":"address","indexed":true,"internalType":"address"},{"name":"leg1AmountIn","type":"uint256","indexed":false,"internalType":"uint256"},{"name":"intermediateDelta","type":"uint256","indexed":false,"internalType":"uint256"},{"name":"leg2AmountIn","type":"uint256","indexed":false,"internalType":"uint256"},{"name":"finalRepayDelta","type":"uint256","indexed":false,"internalType":"uint256"}],"anonymous":false},{"type":"event","name":"UniV2SwapExecuted","inputs":[{"name":"srcToken","type":"address","indexed":true,"internalType":"address"},{"name":"dstToken","type":"address","indexed":true,"internalType":"address"},{"name":"amountIn","type":"uint256","indexed":false,"internalType":"uint256"},{"name":"amountOut","type":"uint256","indexed":false,"internalType":"uint256"}],"anonymous":false},{"type":"event","name":"UniV3SwapExecuted","inputs":[{"name":"srcToken","type":"address","indexed":true,"internalType":"address"},{"name":"dstToken","type":"address","indexed":true,"internalType":"address"},{"name":"fee","type":"uint24","indexed":false,"internalType":"uint24"},{"name":"amountIn","type":"uint256","indexed":false,"internalType":"uint256"},{"name":"amountOut","type":"uint256","indexed":false,"internalType":"uint256"}],"anonymous":false},{"type":"event","name":"UniV4SwapExecuted","inputs":[{"name":"srcToken","type":"address","indexed":true,"internalType":"address"},{"name":"dstToken","type":"address","indexed":true,"internalType":"address"},{"name":"fee","type":"uint24","indexed":false,"internalType":"uint24"},{"name":"amountIn","type":"uint256","indexed":false,"internalType":"uint256"},{"name":"amountOut","type":"uint256","indexed":false,"internalType":"uint256"}],"anonymous":false},{"type":"event","name":"Unpaused","inputs":[{"name":"account","type":"address","indexed":false,"internalType":"address"}],"anonymous":false},{"type":"event","name":"V4HookAllowedUpdated","inputs":[{"name":"hook","type":"address","indexed":true,"internalType":"address"},{"name":"allowed","type":"bool","indexed":false,"internalType":"bool"}],"anonymous":false},{"type":"error","name":"ATokenAddressRequired","inputs":[]},{"type":"error","name":"BalancerSingleTokenOnly","inputs":[]},{"type":"error","name":"BebopSwapFailed","inputs":[]},{"type":"error","name":"BebopTargetNotContract","inputs":[]},{"type":"error","name":"CallbackAmountMismatch","inputs":[]},{"type":"error","name":"CallbackAssetMismatch","inputs":[]},{"type":"error","name":"CoinbaseExceedsProfit","inputs":[{"name":"coinbase","type":"uint256","internalType":"uint256"},{"name":"profit","type":"uint256","internalType":"uint256"}]},{"type":"error","name":"CoinbasePaymentFailed","inputs":[]},{"type":"error","name":"CoinbasePaymentRequiresWethProfit","inputs":[]},{"type":"error","name":"CollateralAssetMismatch","inputs":[{"name":"expected","type":"address","internalType":"address"},{"name":"actual","type":"address","internalType":"address"}]},{"type":"error","name":"DebtAssetMismatch","inputs":[{"name":"expected","type":"address","internalType":"address"},{"name":"actual","type":"address","internalType":"address"}]},{"type":"error","name":"EmptyArray","inputs":[]},{"type":"error","name":"EnforcedPause","inputs":[]},{"type":"error","name":"ExpectedPause","inputs":[]},{"type":"error","name":"FlashFeeExceeded","inputs":[{"name":"actual","type":"uint256","internalType":"uint256"},{"name":"max","type":"uint256","internalType":"uint256"}]},{"type":"error","name":"FlashProviderNotAllowed","inputs":[]},{"type":"error","name":"InsufficientEth","inputs":[{"name":"required","type":"uint256","internalType":"uint256"},{"name":"available","type":"uint256","internalType":"uint256"}]},{"type":"error","name":"InsufficientProfit","inputs":[{"name":"actual","type":"uint256","internalType":"uint256"},{"name":"required","type":"uint256","internalType":"uint256"}]},{"type":"error","name":"InsufficientRepayBalance","inputs":[{"name":"required","type":"uint256","internalType":"uint256"},{"name":"available","type":"uint256","internalType":"uint256"}]},{"type":"error","name":"InsufficientRepayOutput","inputs":[{"name":"actual","type":"uint256","internalType":"uint256"},{"name":"required","type":"uint256","internalType":"uint256"}]},{"type":"error","name":"InsufficientSrcBalance","inputs":[{"name":"required","type":"uint256","internalType":"uint256"},{"name":"available","type":"uint256","internalType":"uint256"}]},{"type":"error","name":"InvalidATokenAddress","inputs":[{"name":"provided","type":"address","internalType":"address"},{"name":"canonical","type":"address","internalType":"address"}]},{"type":"error","name":"InvalidAction","inputs":[{"name":"actionType","type":"uint8","internalType":"uint8"}]},{"type":"error","name":"InvalidBebopCalldata","inputs":[]},{"type":"error","name":"InvalidBebopTarget","inputs":[]},{"type":"error","name":"InvalidCallbackCaller","inputs":[]},{"type":"error","name":"InvalidCoinbase","inputs":[]},{"type":"error","name":"InvalidCoinbaseBps","inputs":[]},{"type":"error","name":"InvalidCollateralAsset","inputs":[]},{"type":"error","name":"InvalidExecutionPhase","inputs":[]},{"type":"error","name":"InvalidFlashLoan","inputs":[]},{"type":"error","name":"InvalidInitiator","inputs":[]},{"type":"error","name":"InvalidLegLink","inputs":[{"name":"leg1Out","type":"address","internalType":"address"},{"name":"leg2In","type":"address","internalType":"address"}]},{"type":"error","name":"InvalidParaswapCalldata","inputs":[]},{"type":"error","name":"InvalidParaswapSelector","inputs":[{"name":"selector","type":"bytes4","internalType":"bytes4"}]},{"type":"error","name":"InvalidPlan","inputs":[]},{"type":"error","name":"InvalidProtocolId","inputs":[{"name":"id","type":"uint8","internalType":"uint8"}]},{"type":"error","name":"InvalidSwapMode","inputs":[]},{"type":"error","name":"InvalidSwapSelector","inputs":[]},{"type":"error","name":"InvalidV2Path","inputs":[]},{"type":"error","name":"InvalidV3Fee","inputs":[{"name":"fee","type":"uint24","internalType":"uint24"}]},{"type":"error","name":"InvalidV4CallbackHook","inputs":[]},{"type":"error","name":"InvalidV4Data","inputs":[]},{"type":"error","name":"InvalidV4Fee","inputs":[]},{"type":"error","name":"InvalidV4FeeOrSpacing","inputs":[]},{"type":"error","name":"InvalidV4NativeToken","inputs":[]},{"type":"error","name":"InvalidV4TokenOut","inputs":[{"name":"expected","type":"address","internalType":"address"},{"name":"actual","type":"address","internalType":"address"}]},{"type":"error","name":"Leg2ModeNotAllowed","inputs":[{"name":"mode","type":"uint8","internalType":"uint8"}]},{"type":"error","name":"Leg2ZeroLeftover","inputs":[]},{"type":"error","name":"LegUseFullBalanceNotAllowed","inputs":[{"name":"mode","type":"uint8","internalType":"uint8"}]},{"type":"error","name":"MixedReceiveAToken","inputs":[]},{"type":"error","name":"MixedSplitLeg1NoConsumption","inputs":[]},{"type":"error","name":"MixedSplitLeg1Overspent","inputs":[{"name":"consumed","type":"uint256","internalType":"uint256"},{"name":"collateralDelta","type":"uint256","internalType":"uint256"}]},{"type":"error","name":"MorphoExecutionFailed","inputs":[]},{"type":"error","name":"MorphoInvalidMarketParams","inputs":[]},{"type":"error","name":"MorphoMixedModeUnsupported","inputs":[]},{"type":"error","name":"MorphoShareModeUnsupported","inputs":[]},{"type":"error","name":"NoActions","inputs":[]},{"type":"error","name":"NoActivePlan","inputs":[]},{"type":"error","name":"NoCollateralReceived","inputs":[]},{"type":"error","name":"NoLiquidationAction","inputs":[]},{"type":"error","name":"OwnableInvalidOwner","inputs":[{"name":"owner","type":"address","internalType":"address"}]},{"type":"error","name":"OwnableUnauthorizedAccount","inputs":[{"name":"account","type":"address","internalType":"address"}]},{"type":"error","name":"ParaswapAmountInMismatch","inputs":[{"name":"expected","type":"uint256","internalType":"uint256"},{"name":"actual","type":"uint256","internalType":"uint256"}]},{"type":"error","name":"ParaswapDstTokenUnexpected","inputs":[{"name":"dstToken","type":"address","internalType":"address"}]},{"type":"error","name":"ParaswapSrcTokenMismatch","inputs":[{"name":"expected","type":"address","internalType":"address"},{"name":"actual","type":"address","internalType":"address"}]},{"type":"error","name":"ParaswapSwapFailed","inputs":[]},{"type":"error","name":"PlanShapeConflict","inputs":[]},{"type":"error","name":"ReceiveATokenV2Unsupported","inputs":[]},{"type":"error","name":"ReentrancyGuardReentrantCall","inputs":[]},{"type":"error","name":"RepayTokenMismatch","inputs":[{"name":"expected","type":"address","internalType":"address"},{"name":"actual","type":"address","internalType":"address"}]},{"type":"error","name":"RescueFailed","inputs":[]},{"type":"error","name":"SafeERC20FailedOperation","inputs":[{"name":"token","type":"address","internalType":"address"}]},{"type":"error","name":"SrcTokenNotCollateral","inputs":[{"name":"expected","type":"address","internalType":"address"},{"name":"actual","type":"address","internalType":"address"}]},{"type":"error","name":"SwapDeadlineExpired","inputs":[{"name":"deadline","type":"uint256","internalType":"uint256"},{"name":"current","type":"uint256","internalType":"uint256"}]},{"type":"error","name":"SwapRecipientInvalid","inputs":[{"name":"recipient","type":"address","internalType":"address"}]},{"type":"error","name":"TargetNotAllowed","inputs":[{"name":"target","type":"address","internalType":"address"}]},{"type":"error","name":"TooManyActions","inputs":[{"name":"count","type":"uint256","internalType":"uint256"}]},{"type":"error","name":"Unauthorized","inputs":[]},{"type":"error","name":"UnsupportedActionType","inputs":[{"name":"actionType","type":"uint8","internalType":"uint8"}]},{"type":"error","name":"UnwrapFailed","inputs":[]},{"type":"error","name":"V4HookNotAllowed","inputs":[{"name":"hook","type":"address","internalType":"address"}]},{"type":"error","name":"V4UnexpectedDelta","inputs":[]},{"type":"error","name":"ZeroActionAmount","inputs":[]},{"type":"error","name":"ZeroAddress","inputs":[]},{"type":"error","name":"ZeroAmountIn","inputs":[]},{"type":"error","name":"ZeroBalance","inputs":[]},{"type":"error","name":"ZeroRepayOutput","inputs":[]},{"type":"error","name":"ZeroSwapInput","inputs":[]},{"type":"error","name":"ZeroSwapOutput","inputs":[]}],"userdoc":{},"devdoc":{},"evm":{"bytecode":{"object":"6040610100815234620003ac57620063c890813803806200002081620003c4565b93843982019161012081840312620003ac576200003d81620003ea565b6020936200004d858401620003ea565b946200005b858501620003ea565b926200006a60608601620003ea565b946200007960808201620003ea565b946200008860a08301620003ea565b956200009760c08401620003ea565b90620000a660e08501620003ea565b9661010085015160018060401b0395868211620003ac570181601f82011215620003ac578051958611620003b0578560051b908880620000e8818501620003c4565b809981520192820101928311620003ac5788809101915b83831062000391575050506001600160a01b0395861699905089156200037a57908b9392918b8760018060a01b03199660019d8e898154169055825f5494828b8716175f555194167f8be0079c531659141344cd1fd0a4f28419497f9722a3daafe3b4186f6b6457e05f80a38d7f9b779b17422d0df92223018b32b4d1fa46e071723d6817e2486d003becc55f005516156200036b5750868416156200035a5786169081156200035a5786169889156200035a5786169788156200035a57868316928315620003495787821694851562000338579091929394959d60805260a05260c05260e052808b600254161760025560049a888160045416176004558781600554161760055560025f5260078752888b5f20918254161790555f5260089560088652895f209760ff19988a8a8254161790555f52895f2089898254161790555f52885f2088888254161790555f52875f2087878254161790555f52865f208686825416179055855f905b620002d5575b8751615f9f90816200042982396080518181816103e40152611261015260a05181818161081001528181610a6e0152818161121d01528181614c18015261558b015260c05181818161192001526153d2015260e0518181816113bd015261544e0152f35b8151811015620003325782620002ec8284620003ff565b51161562000322579786898462000306839b9c86620003ff565b51165f528686528a5f208289825416179055019098976200026b565b875163d92e233d60e01b81528990fd5b62000271565b8d5163d92e233d60e01b8152600490fd5b8c5163d92e233d60e01b8152600490fd5b8b5163d92e233d60e01b8152600490fd5b63d92e233d60e01b8152600490fd5b8a51631e4fbdf760e01b81525f6004820152602490fd5b81906200039e84620003ea565b8152019101908890620000ff565b5f80fd5b634e487b7160e01b5f52604160045260245ffd5b6040519190601f01601f191682016001600160401b03811183821017620003b057604052565b51906001600160a01b0382168203620003ac57565b8051821015620004145760209160051b010190565b634e487b7160e01b5f52603260045260245ffdfe6080604052600436101561001a575b3615610018575f80fd5b005b5f3560e01c80630603d94d14610235578063099a04e51461028a57806309c5eabe1461028557806312bf17db14610271578063158274a51461028057806318c98f2a1461027b5780632a6f182b146102765780632b8ad0371461020d5780632be06d021461027157806331f570721461026c5780633f14b0de146102675780633f4ba83a146102625780633fc8cef31461025d578063570ca735146102585780635a908609146102535780635b7bd4f51461024e5780635c975abb146102495780635fafa58914610244578063715018a61461023f57806379ba50971461023a57806382e2dda7146102355780638456cb591461023057806386e17f061461022b5780638da5cb5b1461022657806391dd734614610221578063958c2e521461021c57806396bd095214610217578063a03e4bc314610212578063a0a0cb531461020d578063a93cefbe14610208578063b2118a8d14610203578063b8fe8d5f146101fe578063d1c5c84a146101f9578063d2cd0cd8146101f4578063e30c3978146101ef578063e822eb32146101ea578063e8ce1bfa146101e5578063e99d23cf146101e0578063f04f2707146101db5763f2fde38b0361000e57612051565b611f73565b611d45565b611d1d565b611cf5565b611ccd565b611bc4565b611b84565b611b44565b611aa1565b611a17565b610fd6565b6119ef565b611964565b61190b565b6115b0565b61152f565b611507565b6114a6565b6102aa565b61143c565b6113ec565b6113a8565b611383565b611322565b6112e4565b61124c565b611208565b611197565b61110c565b610ff1565b610ddc565b610f2f565b610e3f565b610e0a565b6103cb565b6102e2565b5f91031261029957565b5f80fd5b60ff909116815260200190565b34610299575f36600319011261029957602060405160028152f35b6001600160a01b031690565b6001600160a01b0381160361029957565b34610299576040366003190112610299576004356102ff816102d1565b6024359061030b612f53565b6001600160a01b031690811561035e575f80808084865af161032b6120dd565b501561034c575f80516020615eff83398151915260205f92604051908152a3005b60405163b8eaf7a160e01b8152600490fd5b60405163d92e233d60e01b8152600490fd5b9181601f84011215610299578235916001600160401b038311610299576020838186019501011161029957565b602060031982011261029957600435906001600160401b038211610299576103c791600401610370565b9091565b34610299576103d93661039d565b6001600160a01b03907f000000000000000000000000000000000000000000000000000000000000000082163303610dcb57610413612f66565b6002915f80516020615f1f83398151915283815414610db95783905561043b82850185612453565b60a081019060808251510151804211610d9a5750815160209061046082820151151590565b80610d89575b610d625750808201968461047a89516102c5565b161561035e5760409687840194855115610d51576104a361049e60c0835101612502565b6102c5565b15610d40576080850180515115610d2f57805151600a8111610d16575081518a6104cf87830151151590565b15610d025701516104e39061018001612502565b6104ed8c516102c5565b8981168a831603610ce757505061050f90516105098c516102c5565b9061315e565b508781169081151580610cad575b5f9284519388850151610ca5575b600190606080960151610c97575b865160a00151610c89575b11610c7857908d9392916105598651516135ac565b8d86516105688b820151151590565b610b96575b50508551848101516109db575b50855160a081015161079c575b50505050505050856105aa6105a56105a0875160ff1690565b6112a6565b61257d565b1692831561078b576105cb906105c1368a86611f22565b8051910120600a55565b600b805460ff60a01b1916600160a01b17905560ff6105eb855160ff1690565b169081036106f857506105fc6125e3565b9161061b61060d61049e8b516102c5565b61061685612611565b612637565b6106236125e3565b855161062e82612611565b52813b15610299575f80946106598b519a8b9687958694632e1c224f60e11b86523060048701612646565b03925af19081156106f3576106ab6106a460ff925f80516020615f7f833981519152976106c1956106da575b505b6106905f600a55565b600b805460ff60a01b191690555160ff1690565b97516102c5565b9251955193849316961694829190602083019252565b0390a361001860015f80516020615f1f83398151915255565b806106e76106ed92611d74565b8061028f565b5f610685565b6125d8565b60030361077a5761070988516102c5565b918451813b15610299575f80946107358b519a8b968795869463701195a160e11b8652600486016125b4565b03925af19081156106f3576106ab6106a460ff925f80516020615f7f833981519152976106c195610767575b50610687565b806106e761077492611d74565b5f610761565b86516386dd610f60e01b8152600490fd5b88516386dd610f60e01b8152600490fd5b6107a69051612573565b94610180908d6107c46107bd848b515101516102c5565b92516102c5565b90808216908316036109bc5750506107df8f88510151612573565b6107e881612564565b88811415806109a8575b80610994575b61096e575061080c908f8851015101612502565b8c807f00000000000000000000000000000000000000000000000000000000000000001691160361095d57888e8361093e575b50505061090e57508251908b6108588284510151151590565b9283156108fe575b5050506108ed5761087081612564565b8281149081156108d8575b81156108c4575b50806108b7575b6108a6578861089a915101516135ac565b5f898180808080610587565b885163990965c160e01b8152600490fd5b5088815151015115610889565b600491506108d181612564565b145f610882565b90506108e381612564565b600381149061087b565b89516321f2425960e01b8152600490fd5b01510151151590505f8b81610860565b8b9061093a61092289848851015101612502565b9251632ac7d7f160e01b81529283926004840161250f565b0390fd5b6109539293509061049e918851015101612502565b14155f888e61083f565b8d516321f2425960e01b8152600490fd5b8f61093a925061097d82612564565b5163d9d93be760e01b81529182916004830161029d565b5061099e81612564565b60048114156107f8565b506109b281612564565b60038114156107f2565b9150915061093a8f51928392637cabdef760e01b84526004840161250f565b61ffff91929394955060806109f391015161ffff1690565b168015908115610b89575b50610adf57610a0e855151612573565b610a1781612564565b868114159081610b73575b81610b5e575b50610adf57610a3a8d86510151612573565b610a4381612564565b868114159081610b48575b81610b33575b50610adf57610a6a6101808e8751015101612502565b8b807f000000000000000000000000000000000000000000000000000000000000000016911603610adf578181898f83610b14575b505050610b00578c84865191610ab88284510151151590565b928315610af0575b505050610adf57908d939291610ad98e875101516135ac565b5f61057a565b8c516321f2425960e01b8152600490fd5b0151015115159050848e5f610ac0565b8c8361093a6109228b848a51015101612502565b610b299293509061049e918951015101612502565b141581898f610a9f565b60049150610b4081612564565b14155f610a54565b9050610b5381612564565b600381141590610a4e565b60049150610b6b81612564565b14155f610a28565b9050610b7e81612564565b600381141590610a22565b612710915010155f6109fe565b610ba69293949596500151612573565b610baf81612564565b8681141580610c64575b80610c50575b610c4257508c610be589875192610bdb610180855101516102c5565b93015101516102c5565b908c82168d821603610c27575050610c0a610c06858f885101510151151590565b1590565b610adf57908d939291610c208e875101516135ac565b8d5f61056d565b61093a8f51928392633d2d08d760e21b84526004840161250f565b808e61097d61093a93612564565b50610c5a81612564565b6004811415610bbf565b50610c6e81612564565b6003811415610bb9565b8c51631a141d9760e01b8152600490fd5b610c929061253d565b610544565b610ca09061253d565b610539565b50600161052b565b610cbb8785515101516102c5565b838b821603610cca575061051d565b8c51632ac7d7f160e01b815290819061093a90856004840161250f565b61093a8c51928392637cabdef760e01b84526004840161250f565b50610180610d11915101612502565b6104e3565b8a5163040e129160e31b81526004810191909152602490fd5b8951636ed2248360e01b8152600490fd5b885163d92e233d60e01b8152600490fd5b88516321f2425960e01b8152600490fd5b6080604061093a920151015160405191829163a2efa66f60e01b83524290600484016124f1565b506080604082015101514211610466565b60405163a2efa66f60e01b815290819061093a904290600484016124f1565b604051633ee5aeb560e01b8152600490fd5b6040516282b42960e81b8152600490fd5b34610299575f36600319011261029957602060405160038152f35b6001600160a01b03909116815260200190565b34610299575f366003190112610299576004546040516001600160a01b039091168152602090f35b3590610e3d826102d1565b565b3461029957602036600319011261029957600435610e5c816102d1565b610e64612f53565b6001600160a01b0381811691821561035e57610e8c610c06610e8583611b12565b5460ff1690565b610f12578282610e9d6003546102c5565b610ea6846126e6565b16696d6f7270686f426c756560b01b5f80516020615f5f8339815191525f80a4610efc610ed46105a56112b7565b91610edd6112b7565b80546001600160a01b0319166001600160a01b03909216919091179055565b1660035f80516020615edf8339815191525f80a4005b60405163e356c1d360e01b815290819061093a9060048301610df7565b3461029957602036600319011261029957600435610f4c816102d1565b610f54612f53565b6001600160a01b0381811691821561035e57825f526008602052610f80610c0660405f2060ff90541690565b610f1257610fb4610f926006546102c5565b600680546001600160a01b0319166001600160a01b0390941693909317909255565b166918585d99558c941bdbdb60b21b5f80516020615f5f8339815191525f80a4005b34610299575f36600319011261029957602060405160018152f35b34610299576040806003193601126102995760049081356024356001600160401b038111610299576110269036908501610370565b906001611039600b5460ff9060a01c1690565b6110428161258a565b036110fc57600a5480156110ed5761105e61049e6105a56112b7565b33036110dd5761106f368484611f22565b60208151910120036110cd5761108791810190612453565b918083015182036110be5761001883836110a1818361388b565b9160e060a06110b360208701516102c5565b950151015193613e6a565b5163dafc5d7560e01b81528390fd5b505050516321f2425960e01b8152fd5b84516333b43e6360e21b81528690fd5b84516252b17f60e91b81528690fd5b505050516362ac0f3760e01b8152fd5b3461029957602036600319011261029957600435611129816102d1565b611131612f53565b6001600160a01b0381811691821561035e57825f52600860205261115d610c0660405f2060ff90541690565b610f125761117561116f6003546102c5565b916126e6565b16696d6f7270686f426c756560b01b5f80516020615f5f8339815191525f80a4005b34610299575f366003190112610299576111af612f53565b60015460ff8160a01c16156111f65760ff60a01b19166001556040513381527f5db9ee0a495bf2e6ff9c91a7834c1ba4fdd244a5e8aa4e537bd38aeae4b073aa90602090a1005b604051638dfc202b60e01b8152600490fd5b34610299575f366003190112610299576040517f00000000000000000000000000000000000000000000000000000000000000006001600160a01b03168152602090f35b34610299575f366003190112610299576040517f00000000000000000000000000000000000000000000000000000000000000006001600160a01b03168152602090f35b60ff81160361029957565b3590610e3d82611290565b60ff165f52600760205260405f2090565b60035f5260076020527f3be6fd20d5acfde5b873b48692cd31f4d3c7e8ee8a813af4696af8859e5ca6c690565b346102995760203660031901126102995760ff60043561130381611290565b165f526007602052602060018060a01b0360405f205416604051908152f35b34610299576040366003190112610299576001600160401b036004358181116102995736602382011215610299578060040135918211610299573660248360051b830101116102995761001891602480359261137d846102d1565b01612708565b34610299575f36600319011261029957602060ff60015460a01c166040519015158152f35b34610299575f366003190112610299576040517f00000000000000000000000000000000000000000000000000000000000000006001600160a01b03168152602090f35b34610299575f36600319011261029957611404612f53565b600180546001600160a01b03199081169091555f80549182168155906001600160a01b03165f80516020615ebf8339815191528280a3005b34610299575f366003190112610299576001546001600160a01b03338183160361148e5760018060a01b03198092166001555f549133908316175f553391165f80516020615ebf8339815191525f80a3005b60405163118cdaa760e01b8152336004820152602490fd5b34610299575f366003190112610299576114be612f53565b6114c6612f66565b6001805460ff60a01b1916600160a01b1790556040513381527f62e78cea01bee320cd4e420270b5ea74000d11b0c9f74754ebdbfc544b05a25890602090a1005b34610299575f366003190112610299576005546040516001600160a01b039091168152602090f35b34610299575f366003190112610299575f546040516001600160a01b039091168152602090f35b5f5b8381106115675750505f910152565b8181015183820152602001611558565b9060209161159081518092818552858086019101611556565b601f01601f1916010190565b9060206115ad928181520190611577565b90565b34610299576115be3661039d565b600b5490600160ff8360a01c166115d48161258a565b036118f9576001600160a01b0391821692338490036118e7576115fc8184938493019061286a565b96929791949590951692169316801515806118d2575b6118c05761165d926116cd9161168886851097885f146118b65761168386935b8a156118ac5761167a8a965b611650611649611de5565b9788612637565b60209a8b98898901612637565b61167060409e8f89019062ffffff169052565b60020b6060870152565b60808501612637565b6128c5565b90871561188f576116b36401000276a45b6116a1611df2565b8a1515815293858501528a8401612637565b8851633cf3645360e21b81529384928392600484016128d5565b03815f8b5af19081156106f3575f91611872575b50600f81810b9160801d900b851561186b5780955b156118635750935b5f81600f0b12801590611856575b6118455761171c6117229161294c565b600f0b90565b863b15610299578551632961046560e21b8152915f83806117468460048301610df7565b0381838c5af19081156106f357611764938992611832575b50613fad565b8351630476982d60e21b815281816004815f8a5af180156106f357611804575b5050833b15610299578251630b0d9c0960e01b81526001600160a01b03919091166004820152306024820152600f9190910b6044820152915f908390606490829084905af19182156106f3576117ed926117f1575b506117e26120bb565b90519182918261159c565b0390f35b806106e76117fe92611d74565b5f6117d9565b8161182392903d1061182b575b61181b8183611dc2565b810190612850565b505f80611784565b503d611811565b806106e761183f92611d74565b5f61175e565b855163a90d590560e01b8152600490fd5b505f85600f0b131561170c565b9050936116fe565b81956116f6565b6118899150833d851161182b5761181b8183611dc2565b5f6116e1565b6116b373fffd89641172cbb4bec0e5ea89ea0711c974f98d611699565b61167a889661163e565b6116838893611632565b604051634aef020360e01b8152600490fd5b506118e2610c06610e8583611b2b565b611612565b6040516333b43e6360e21b8152600490fd5b6040516362ac0f3760e01b8152600490fd5b34610299575f366003190112610299576040517f00000000000000000000000000000000000000000000000000000000000000006001600160a01b03168152602090f35b8015150361029957565b3590610e3d8261194f565b3461029957604036600319011261029957600435611981816102d1565b6024359061198e8261194f565b611996612f53565b6001600160a01b031690811561035e5760207fc5a783ce9408954193e744d609abc9a412cd61fca638993708f56db1db7b0ab891835f526009825260405f209015159060ff1981541660ff8316179055604051908152a2005b34610299575f366003190112610299576002546040516001600160a01b039091168152602090f35b3461029957604036600319011261029957600435611a3481611290565b60243590611a41826102d1565b611a49612f53565b6001600160a01b0382811692831561035e57611a6a610c06610e8583611b12565b610f12579060ff91611a8b611a816105a5866112a6565b91610edd866112a6565b1691165f80516020615edf8339815191525f80a4005b3461029957606036600319011261029957600435611abe816102d1565b602435611aca816102d1565b60443591611ad6612f53565b6001600160a01b0382811693909190841561035e57611b09815f80516020615eff83398151915294602094169586613fad565b604051908152a3005b6001600160a01b03165f90815260086020526040902090565b6001600160a01b03165f90815260096020526040902090565b3461029957602036600319011261029957600435611b61816102d1565b60018060a01b03165f526008602052602060ff60405f2054166040519015158152f35b3461029957602036600319011261029957600435611ba1816102d1565b60018060a01b03165f526009602052602060ff60405f2054166040519015158152f35b346102995760408060031936011261029957600435611be2816102d1565b602435611bee816102d1565b611bf6612f53565b6001600160a01b03918216918215611cbc578116928315611cac5780516370a0823160e01b81529160208380611c2f3060048301610df7565b0381875afa9283156106f3575f93611c8b575b508215611c7a5791611c7591611c67825f80516020615eff8339815191529587613fad565b519081529081906020820190565b0390a3005b815163334ab3f560e11b8152600490fd5b611ca591935060203d60201161182b5761181b8183611dc2565b915f611c42565b5163d92e233d60e01b8152600490fd5b835163d92e233d60e01b8152600490fd5b34610299575f366003190112610299576001546040516001600160a01b039091168152602090f35b34610299575f366003190112610299576006546040516001600160a01b039091168152602090f35b34610299575f366003190112610299576003546040516001600160a01b039091168152602090f35b34610299575f36600319011261029957602060405160648152f35b634e487b7160e01b5f52604160045260245ffd5b6001600160401b038111611d8757604052565b611d60565b604081019081106001600160401b03821117611d8757604052565b60a081019081106001600160401b03821117611d8757604052565b601f909101601f19168101906001600160401b03821190821017611d8757604052565b60405190610e3d82611da7565b60405190606082016001600160401b03811183821017611d8757604052565b604051906101c082016001600160401b03811183821017611d8757604052565b6040519061010082016001600160401b03811183821017611d8757604052565b6040519060c082016001600160401b03811183821017611d8757604052565b6040519061016082016001600160401b03811183821017611d8757604052565b6001600160401b038111611d875760051b60200190565b9080601f83011215610299576020908235611ec181611e90565b93611ecf6040519586611dc2565b81855260208086019260051b82010192831161029957602001905b828210611ef8575050505090565b81358152908301908301611eea565b6001600160401b038111611d8757601f01601f191660200190565b929192611f2e82611f07565b91611f3c6040519384611dc2565b829481845281830111610299578281602093845f960137010152565b9080601f83011215610299578160206115ad93359101611f22565b34610299576080366003190112610299576001600160401b036004358181116102995736602382011215610299578060040135611faf81611e90565b91611fbd6040519384611dc2565b8183526020916024602085019160051b8301019136831161029957602401905b82821061203857858560243582811161029957611ffe903690600401611ea7565b60443583811161029957612016903690600401611ea7565b9060643593841161029957612032610018943690600401611f58565b92612d92565b8380918335612046816102d1565b815201910190611fdd565b346102995760203660031901126102995760043561206e816102d1565b612076612f53565b60018060a01b03809116908160018060a01b031960015416176001555f54167f38d16b8cac22d99fc7c124b9cd0de2d3fa1faef420bfe791d8c362d765e227005f80a3005b60405190602082016001600160401b03811183821017611d87576040525f8252565b3d15612107573d906120ee82611f07565b916120fc6040519384611dc2565b82523d5f602084013e565b606090565b9080601f830112156102995781359160209161212784611e90565b9360406121376040519687611dc2565b818652848087019260051b8501019383851161029957858101925b858410612163575050505050505090565b6001600160401b0384358181116102995783019184601f19848903011261029957845161218f81611d8c565b8984013561219c81611290565b815285840135928311610299576121ba888b80969581960101611f58565b83820152815201930192612152565b6005111561029957565b3590610e3d826121c9565b9080601f830112156102995760209082356121f881611e90565b936122066040519586611dc2565b81855260208086019260051b82010192831161029957602001905b82821061222f575050505090565b838091833561223d816102d1565b815201910190612221565b62ffffff81160361029957565b3590610e3d82612248565b9190916101c08184031261029957612276611e11565b92612280826121d3565b845261228e60208301610e32565b6020850152604082013560408501526122a960608301611959565b6060850152608082810135908501526001600160401b0360a083013581811161029957826122d8918501611f58565b60a08601526122e960c08401610e32565b60c086015260e08301358181116102995782612306918501611f58565b60e08601526101008084013582811161029957836123259186016121de565b90860152610120612337818501612255565b90860152610140612349818501610e32565b90860152610160918284013591821161029957612367918401611f58565b90840152610180612379818301610e32565b908401526101a08091013590830152565b61ffff81160361029957565b3590610e3d8261238a565b919061010083820312610299576123b6611e31565b926001600160401b03813581811161029957836123d4918401612260565b85526123e260208301611959565b602086015260408201359081116102995760e092612401918301612260565b604085015261241260608201611959565b606085015261242360808201612396565b608085015261243460a08201611959565b60a085015261244560c08201610e32565b60c0850152013560e0830152565b90602082820312610299576001600160401b039180359083821161029957019060c08282031261029957612485611e51565b9261248f8361129b565b845261249d60208401610e32565b60208501526040830135604085015260608301356060850152608083013581811161029957826124ce91850161210c565b608085015260a0830135908111610299576124e992016123a1565b60a082015290565b908152602081019190915260400190565b516001600160a01b031690565b6001600160a01b0391821681529116602082015260400190565b634e487b7160e01b5f52601160045260245ffd5b5f19811461254b5760010190565b612529565b634e487b7160e01b5f52602160045260245ffd5b6005111561256e57565b612550565b516115ad81612564565b546001600160a01b031690565b6002111561256e57565b908060209392818452848401375f828201840152601f01601f1916010190565b6115ad949260609260018060a01b0316825260208201528160408201520191612594565b6040513d5f823e3d90fd5b604051906125f082611d8c565b6001825260203681840137565b634e487b7160e01b5f52603260045260245ffd5b80511561261e5760200190565b6125fd565b805182101561261e5760209160051b010190565b6001600160a01b039091169052565b6001600160a01b0391821681526080602080830182905284519183018290529796949593919260a0840192890191905f905b8a8383106126cc57505050505081810360408301528680865192838152019501905f5b8181106126b8575050506115ad9495506060818503910152612594565b82518752958801959188019160010161269b565b845182168652948501949093019260019190910190612678565b600380546001600160a01b0319166001600160a01b0392909216919091179055565b919091612713612f53565b8215612824576001600160a01b03821690811561035e575f5b84811061273a575050505050565b61275361049e61049e61274e848987612836565b612846565b604080516370a0823160e01b81526020939290919084908390818061277b3060048301610df7565b03915afa9182156106f35783879387926001975f92612807575b50508a8a826127ac575b505050505050500161272c565b61274e84836127e38661049e956127de61049e61274e6127f89c6127e99b5f80516020615eff8339815191529f612836565b613fad565b8c612836565b93519081529081906020820190565b0390a3835f8483828a8a61279f565b61281d9250803d1061182b5761181b8183611dc2565b5f80612795565b60405163521299a960e01b8152600490fd5b919081101561261e5760051b0190565b356115ad816102d1565b90816020910312610299575190565b8060020b0361029957565b91908260c0910312610299578135612881816102d1565b916020810135612890816102d1565b91604082013561289f81612248565b9160608101356128ae8161285f565b9160a060808301356128bf816102d1565b92013590565b600160ff1b811461254b575f0390565b608060406115ad946101209460018060a01b0393818580935116875282602082015116602088015262ffffff858201511685880152606081015160020b606088015201511660808501528051151560a0850152602081015160c085015201511660e082015281610100820152016020905f81520190565b600f0b60016001607f1b0319811461254b575f0390565b5190610e3d82611290565b5190610e3d826102d1565b81601f8201121561029957805161298f81611f07565b9261299d6040519485611dc2565b81845260208284010111610299576115ad9160208085019101611556565b9080601f83011215610299578151916020916129d684611e90565b9360406129e66040519687611dc2565b818652848087019260051b8501019383851161029957858101925b858410612a12575050505050505090565b83516001600160401b03908181116102995783019184601f198489030112610299578451612a3f81611d8c565b89840151612a4c81611290565b81528584015192831161029957612a6a888b80969581960101612979565b83820152815201930192612a01565b5190610e3d826121c9565b5190610e3d8261194f565b9080601f8301121561029957815190602091612aaa81611e90565b93612ab86040519586611dc2565b81855260208086019260051b82010192831161029957602001905b828210612ae1575050505090565b8380918351612aef816102d1565b815201910190612ad3565b5190610e3d82612248565b9190916101c08184031261029957612b1b611e11565b92612b2582612a79565b8452612b336020830161296e565b602085015260408201516040850152612b4e60608301612a84565b60608501526080828101519085015260a08201516001600160401b03908181116102995782612b7e918501612979565b60a0860152612b8f60c0840161296e565b60c086015260e08301518181116102995782612bac918501612979565b60e0860152610100808401518281116102995783612bcb918601612a8f565b90860152610120612bdd818501612afa565b90860152610140612bef81850161296e565b90860152610160918284015191821161029957612c0d918401612979565b90840152610180612c1f81830161296e565b908401526101a08091015190830152565b5190610e3d8261238a565b91906101008382031261029957612c50611e31565b83519093906001600160401b03908181116102995783612c71918401612b05565b8552612c7f60208301612a84565b602086015260408201519081116102995760e092612c9e918301612b05565b6040850152612caf60608201612a84565b6060850152612cc060808201612c30565b6080850152612cd160a08201612a84565b60a0850152612ce260c0820161296e565b60c0850152015160e0830152565b906020828203126102995781516001600160401b039283821161029957019060c08282031261029957612d21611e51565b92612d2b83612963565b8452612d396020840161296e565b6020850152604083015160408501526060830151606085015260808301518181116102995782612d6a9185016129bb565b608085015260a0830151908111610299576124e99201612c3b565b9190820180921161254b57565b9190926001612da7600b5460ff9060a01c1690565b612db08161258a565b036118f957600a548015612f425760025f526007602052612df361049e7fb7c774451310d1be4108bc180d1b52823cb0ee0274a6c0081bcaf94f115fb96d61257d565b33036118e7578151906020830191822003612f30576001845103612f1e57602082612e219351010190612cf0565b92612e3661049e612e3185612611565b612502565b612e4661049e60208701516102c5565b6001600160a01b0390911603612f0c57612e5f81612611565b51604085015103612efa57612e7382612611565b516060850190815110612ed1575091612ea7612e3192612ea0612e99610e3d9796612611565b5191612611565b5190612d85565b9260e060a0612ec461049e612ebc888661388b565b979096612611565b9201510151933391613f01565b612eda83612611565b519051604051633868125d60e01b815291829161093a91600484016124f1565b60405163dafc5d7560e01b8152600490fd5b604051635aada19f60e01b8152600490fd5b60405163cf95e0e160e01b8152600490fd5b6040516321f2425960e01b8152600490fd5b6040516252b17f60e91b8152600490fd5b5f546001600160a01b0316330361148e57565b60ff60015460a01c16612f7557565b60405163d93c066560e01b8152600490fd5b8091039061012082126102995760a060405192612fa384611da7565b126102995761010090604051612fb881611da7565b8151612fc3816102d1565b81526020820151612fd3816102d1565b60208201526040820151612fe6816102d1565b60408201526060820151612ff9816102d1565b606082015260808201516080820152835261301660a0820161296e565b602084015260c0810151604084015260e081015160608401520151608082015290565b908160a09103126102995760806040519161305383611da7565b805161305e816102d1565b8352602081015161306e816102d1565b60208401526040810151613081816102d1565b604084015260608101516060840152015161309b8161194f565b608082015290565b9081610160910312610299576130b7611e70565b906130c181612963565b82526130cf6020820161296e565b602083015260408101516040830152606081015160608301526130f46080820161296e565b608083015261310560a0820161296e565b60a083015261311660c0820161296e565b60c083015261312760e0820161296e565b60e08301526101008082015190830152610120613145818301612a84565b9083015261315761014080920161296e565b9082015290565b5f929183808080805b865189101561354d5761318561317d8a89612623565b515160ff1690565b60ff9081811660648114613541576020806131a08e8d612623565b510151905f8060019586861495865f146133d4575050505090816131ca92825183010191016130a3565b926131d6845160ff1690565b600480928216036133b9575060a08401906131f461049e83516102c5565b156133aa575061321161320a60c08601516102c5565b91516102c5565b916101008501519261323561014061322d610120890151151590565b9701516102c5565b935b15613398576001600160a01b03928c84168185160361337a575082811680613332575b5050613279575b5050505061327060019161253d565b985b0197613167565b919487919397155f146132c95750508593956132a1575b50506132706001915b915f80613261565b908092945016156132b757916132706001613290565b60405163349e5f4f60e11b8152600490fd5b80955096909615159015150361332057839081613310575b506132f25750613270600191613299565b60405163173fa8d960e21b815290819061093a90866004840161250f565b809150851690821614155f6132e1565b604051630750e8e560e41b8152600490fd5b838c92939c169081155f1461334d57505050985b5f8061325a565b9b92919b0361335c5750613346565b60405163173fa8d960e21b815290819061093a908d6004840161250f565b60405163bd8581fb60e01b815290819061093a908f6004840161250f565b60405163016df55960e41b8152600490fd5b60405163a9213b9b60e01b8152fd5b60405163764986cd60e01b815291829161093a91830161029d565b9297509094929391600381036134615750508083806133f893518301019101613039565b916134066080840151151590565b61344f5761341761049e84516102c5565b1561343d57613428908301516102c5565b91606061343582516102c5565b910151613237565b60405163a9213b9b60e01b8152600490fd5b60405163019c5ff160e51b8152600490fd5b600203613524575080838061347b93518301019101612f87565b61348861049e8251612502565b156135125761349c61049e84835101612502565b1561351257604090818101918251156135025760608201516134f2576080820151156134e257506134db9051936134d385516102c5565b9401516102c5565b9051613237565b516321f2425960e01b8152600490fd5b51631ec8d07d60e01b8152600490fd5b51639dea284560e01b8152600490fd5b6040516337d5ff8d60e01b8152600490fd5b60405163ee5b1c4960e01b815290819061093a906004830161029d565b50505097600190613272565b93975093509350501561357f578061356d575b156135685790565b508190565b506001600160a01b0381161515613560565b60405163e4fe62b360e01b8152600490fd5b5f1981019190821161254b57565b9190820391821161254b57565b6020810180516001600160a01b039081906135c6906102c5565b161561035e576101808301916135df61049e84516102c5565b1561035e576135ee81516102c5565b826135fc61049e86516102c5565b911614612f3057835161360e81612564565b61361781612564565b8015808015613878575b8061386b575b6138455761363482612564565b156136795750505050600460a0820151511061366757604001511561365557565b60405163990965c160e01b8152600490fd5b6040516312e9836360e11b8152600490fd5b61368281612564565b600181036136ea575050505061369e61049e60c08301516102c5565b156136d857600460e082015151106136c657604081015115613655576101a0015115612f3057565b60405163264a980760e21b8152600490fd5b604051632618186b60e01b8152600490fd5b6136f381612564565b60028103613772575061010084018051519160028310613760578361372861049e613721612e318651612611565b93516102c5565b91160361376057613721612e3161374d9361374761049e945191613591565b90612623565b911603613760576101a0015115612f3057565b60405163b02012d960e01b8152600490fd5b9250505061377f81612564565b60038103613812575061012081015162ffffff1660648114158181613805575b816137f8575b816137eb575b506137cc57506101a00151610e3d576040516321f2425960e01b8152600490fd5b60405163a99f097760e01b815262ffffff919091166004820152602490fd5b612710915014155f6137ab565b610bb881141591506137a5565b6101f4811415915061379f565b8061381e600492612564565b036138335761382c90614080565b5050505050565b60405163581db3a360e11b8152600490fd5b61093a8261385281612564565b604051637c7eb45960e11b81529182916004830161029d565b5060608601511515613627565b5061388282612564565b60018214613621565b9190915f916138a361049e61049e60208501516102c5565b602060405180926370a0823160e01b825281806138c33060048301610df7565b03915afa9081156106f3575f91613e4b575b50604083015111613e39576138f5608083015161050960208501516102c5565b6001600160a01b0381161515959194918680613e23575b613e0f575b61392761049e61049e60c060a089015101612502565b95602060405180986370a0823160e01b825281806139483060048301610df7565b03915afa9081156106f35788975f92613dee575b505f97613d8b575b5f936001600160a01b038216613d28575b5f5b608089015180518210156139de579060646139a061399a61317d84600196612623565b60ff1690565b036139ac575b01613977565b6139d98a60206139d08460806139c861317d8383880151612623565b940151612623565b510151906142b1565b6139a6565b50509193959880989193959798613cb6575b80613ca0575b613b4e575b505f9490506001600160a01b038216613ac6575b50613a4c93613a23918460a08901516145da565b613a3060208601516102c5565b90613a4160c060a088015101612502565b604087015192614b11565b905f5b60808401518051821015613abf57613a6f61399a61317d84606494612623565b14613a7d575b600101613a4f565b90613ab7600191613ab1856020613a988760808b0151612623565b510151613aab60c060a08b015101612502565b90614bec565b90612d85565b919050613a75565b5050915091565b6040516370a0823160e01b81529094509060208280613ae83060048301610df7565b03816001600160a01b0385165afa80156106f357613a4c95613a23935f92613b2d575b5080821115613b2557613b1d9161359f565b945090613a0f565b50505f613b1d565b613b4791925060203d60201161182b5761181b8183611dc2565b905f613b0b565b602060405180936370a0823160e01b82528180613b6e3060048301610df7565b03916001600160a01b03165afa80156106f357613b92925f91613c81575b5061359f565b80613b9e575b806139fb565b6040516370a0823160e01b81529060208280613bbd3060048301610df7565b03816001600160a01b0387165afa9182156106f3575f92613c5c575b50613be49083614562565b6040516370a0823160e01b815260208180613c023060048301610df7565b03816001600160a01b0387165afa9081156106f3575f91613c3d575b501115613c2b575f613b98565b604051633f6134c760e01b8152600490fd5b613c56915060203d60201161182b5761181b8183611dc2565b5f613c1e565b613be4919250613c7a9060203d60201161182b5761181b8183611dc2565b9190613bd9565b613c9a915060203d60201161182b5761181b8183611dc2565b5f613b8c565b506001600160a01b0382811690841614156139f6565b6040516370a0823160e01b815260208180613cd43060048301610df7565b03816001600160a01b0388165afa80156106f35783915f91613d09575b50116139f057604051638b82017b60e01b8152600490fd5b613d22915060203d60201161182b5761181b8183611dc2565b5f613cf1565b6040516370a0823160e01b815290945060208180613d493060048301610df7565b03816001600160a01b0386165afa9081156106f3575f91613d6c575b5093613975565b613d85915060203d60201161182b5761181b8183611dc2565b5f613d65565b6040516370a0823160e01b815290975060208180613dac3060048301610df7565b03816001600160a01b0388165afa9081156106f3575f91613dcf575b5096613964565b613de8915060203d60201161182b5761181b8183611dc2565b5f613dc8565b613e0891925060203d60201161182b5761181b8183611dc2565b905f61395c565b613e1e82876080880151614210565b613911565b506001600160a01b03828116908716141561390c565b60405163bafe1c5360e01b8152600490fd5b613e64915060203d60201161182b5761181b8183611dc2565b5f6138d5565b6040516370a0823160e01b81523060048201529195949392916001600160a01b0390911690602081602481855afa9081156106f3575f91613ee2575b50868110613ec45750610e3d9495613ebf913390614d80565b614e16565b604051630d1dc67360e11b815290819061093a9089600484016124f1565b613efb915060203d60201161182b5761181b8183611dc2565b5f613ea6565b6040516370a0823160e01b815296959493926001600160a01b03918216929160208980613f313060048301610df7565b0381875afa9889156106f3575f99613f8c575b50828910613f7057610e3d9798508116155f14613f675750613ebf913390614d80565b613ebf92613fad565b604051630d1dc67360e11b81528061093a8b86600484016124f1565b613fa691995060203d60201161182b5761181b8183611dc2565b975f613f44565b60405163a9059cbb60e01b5f9081526001600160a01b039384166004526024949094529260209060448180855af160015f5114811615614010575b8360405215613ff657505050565b635274afe760e01b8352829161093a911660048301610df7565b600181151661402657813b15153d151616613fe8565b833d5f823e3d90fd5b908160a0910312610299578051614045816102d1565b916020820151614054816102d1565b91604081015161406381612248565b91608060608301516140748161285f565b9201516115ad816102d1565b906101a082015115612f305761409a6101408301516102c5565b6001600160a01b03908082161561035e576140ba610c06610e8583611b12565b610f125750610160830160a0815151036141c5576140e38291516020808251830101910161402f565b96929590939616928094808084981698169889158015614208575b6141f65761411261049e60208301516102c5565b8a036141c5576101806141269101516102c5565b90811688036141d757508688146141c55762ffffff8216159081156141b7575b506141a5576280000016614193578115158061417e575b61416357565b6040516319a613c960e01b81528061093a8460048301610df7565b5061418e610c06610e8584611b2b565b61415d565b604051630deb3df360e11b8152600490fd5b604051637348ae7b60e01b8152600490fd5b5f915060020b13155f614146565b6040516304d454c160e31b8152600490fd5b604051631d7f648160e01b815290819061093a908a906004840161250f565b60405163970f566960e01b8152600490fd5b5088156140fe565b91905f5b83518110156142ab57600161422f61399a61317d8488612623565b1461423c57600101614214565b5090915061424b6002546102c5565b60246101e06040928351928380926335ea6a7560e01b8252600497888301525afa15610299576101000151906001600160a01b03808316908516036142905750505050565b51630b8cae4160e11b815292839261093a929190840161250f565b50505050565b60ff16600181036142c65750610e3d90614ff9565b600381036142d85750610e3d90614eab565b6002810361454a5750806020806142f493518301019101612f87565b6142ff6003546102c5565b906001600160a01b0380831691821561035e57614321610c06610e8586611b12565b61452f57602081019261433761049e85516102c5565b1561035e576040948583019182511561451e576060840190815161450d576080850193845115610d515761436e61049e8751612502565b156144fc5761438361049e6020885101612502565b156144fc57908892916143a561439c61049e8951612502565b86885191614d80565b5f6143b288519a516102c5565b915193518551631b1d579760e31b81528b516001600160a01b03908116600483015260208d01518116602483015260408d01518116604483015260608d0151811660648301526080909c015160848201529a90921660a48b015260c48a019390935260e48901526101206101048901525f6101248901528791610144918391905af19485156106f3575f956144c7575b506144599061445461049e8551612502565b614cd0565b518084116144aa57506002915f80516020615f3f8339815191529151946144a58261449161448a60208a01516102c5565b98516102c5565b925193849316971695829190602083019252565b0390a4565b8451630d1dc67360e11b815290819061093a9086600484016124f1565b6144599195506144ec90873d89116144f5575b6144e48183611dc2565b810190614e62565b90509490614442565b503d6144da565b88516337d5ff8d60e01b8152600490fd5b8751631ec8d07d60e01b8152600490fd5b8651639dea284560e01b8152600490fd5b60405163e356c1d360e01b81528061093a8660048301610df7565b6024906040519063ee5b1c4960e01b82526004820152fd5b600254604051631a4ca37b60e21b81526001600160a01b0392831660048201526024810193909352306044840152602091839160649183915f91165af180156106f3576145ac5750565b6145c49060203d60201161182b5761181b8183611dc2565b50565b8181029291811591840414171561254b57565b9192908251906020908185016145f08151151590565b15614afe57614606610180604088015101612502565b604080516370a0823160e01b808252919990976004936001600160a01b03908116939190888b80614639308a8301610df7565b0381885afa9384156106f357898b8f9d5f97614acf575b5061049e61049e6101806146659301516102c5565b9c51809d868252818061467a308d8301610df7565b03915afa9b8c156106f3578d905f9d614aa9575b506060015115155b614a355760a08d0151614887575050896146b360608b0151151590565b15614877576146c391809a615491565b5f986146cf8651151590565b6147d2575b5086908b51938491825281806146ec30898301610df7565b03915afa9182156106f3575f926147b3575b50808211156147aa576147109161359f565b925b80841061478f57505051614729575b505050505050565b8361475f61049e61478194897fa760b7b6e6eb4a21c10e4883ff02caf95eac1dcf06ee130df0904049a38c83b799015101612502565b9651948594859094939260609260808301968352602083015260408201520152565b0390a25f8080808080614721565b8851633ae71ee360e11b81529384935061093a9284016124f1565b50505f92614712565b6147cb919250863d881161182b5761181b8183611dc2565b905f6146fe565b98508a8a01986147ea61049e61049e8a8d5101612502565b90888d5180938582528180614801308c8301610df7565b03915afa9182156106f3575f92614858575b5080821115614850576148259161359f565b809981156148405788929161483a91516152d6565b906146d4565b8c51632c3af8c560e11b81528690fd5b50505f614825565b614870919250893d8b1161182b5761181b8183611dc2565b905f614813565b6146c391508c8a0151809a615491565b909194979a9398999296509a949a16908115614a25576148b4898c8e51809381928b835230908301610df7565b0381865afa9283156106f3576148f1948b938f8f945f976149fe575b508101516148de9291615491565b8d5180809681948b835230908301610df7565b03915afa9182156106f3575f926149df575b50808210156149cf570390808210156149b457918961492892889594039101516152d6565b87519283918252818061493d308b8301610df7565b03915afa9283156106f3575f93614995575b50508082111561498c576149629161359f565b925b8184106149715750505050565b51633ae71ee360e11b815292839261093a92919084016124f1565b50505f92614964565b6149ac929350803d1061182b5761181b8183611dc2565b905f8061494f565b895163078abb7f60e21b815291829161093a91838c016124f1565b8a516356cdec5760e01b81528a90fd5b6149f7919250883d8a1161182b5761181b8183611dc2565b905f614903565b6148de9392919750614a1c90873d891161182b5761181b8183611dc2565b969091926148d0565b8b516321f2425960e01b81528b90fd5b50509399929598919697909450614a79614a72614a6a614a64614a5d608088015161ffff1690565b61ffff1690565b876145c7565b612710900490565b809561359f565b9084158015614aa1575b614a255792614a9a899695938d9361492896615491565b01516152d6565b508115614a83565b614696919d50614ac76060918d803d1061182b5761181b8183611dc2565b9d915061468e565b61466591975061049e610180614af461049e93863d881161182b5761181b8183611dc2565b9993505050614650565b614b0c6101808501516102c5565b614606565b6040516370a0823160e01b8152949293916001600160a01b039081169160208780614b3f3060048301610df7565b0381865afa9687156106f3575f97614b97575b501614614b7257505080821115614b6c576115ad9161359f565b50505f90565b614b8090614b869394612d85565b92612d85565b80821115614b6c576115ad9161359f565b614bb191975060203d60201161182b5761181b8183611dc2565b955f614b52565b9081602091031261029957516115ad81611290565b91908260409103126102995760208251614be681611290565b92015190565b90815190614c0260208085019385010183614bb8565b60ff8116600103614cb357506001600160a01b037f00000000000000000000000000000000000000000000000000000000000000008116911603614ca157602082614c509351010190614bcd565b9190506127108211614c8f5780158015614c87575b614b6c57614c7691614a6a916145c7565b9081614c7e57565b610e3d826154f5565b508115614c65565b60405163c12b375d60e01b8152600490fd5b604051631744475f60e01b8152600490fd5b6040516317949c6760e11b815290819061093a906004830161029d565b60405163095ea7b360e01b5f9081526001600160a01b0380851660045260248290529293919060209060448180885af19060015f5114821615614d71575b60405215614d1b57505050565b614d258184615698565b15614d5757614d349083615698565b15614d3d575050565b604051635274afe760e01b81529116600482015260249150fd5b604051635274afe760e01b81528284166004820152602490fd5b90843b15153d15161690614d0e565b916040519163095ea7b360e01b5f5260018060a01b03928382166004528260245260205f60448180895af19060015f5114821615614e07575b60405215614dc75750505050565b614dd18185615698565b15614ded5790614de191846156f4565b15614d3d5780806142ab565b604051635274afe760e01b81528385166004820152602490fd5b90853b15153d15161690614db9565b808211614e455703818110614e29575050565b61093a604051928392632744211560e11b8452600484016124f1565b604051637d759e3360e01b815291829161093a91600484016124f1565b9190826040910312610299576020825192015190565b6001600160a01b039182168152918116602083015290911660408201526060810191909152901515608082015260a00190565b614ebe9060208082518301019101613039565b614ec96006546102c5565b6001600160a01b0391818316801561035e57614eea610c06610e8585611b12565b614fde576020820193614f0061049e86516102c5565b93614f12606085019582875191614d80565b614f1c84516102c5565b614f2687516102c5565b93614f3460408701516102c5565b90875195614f456080890151151590565b823b15610299575f94614f6f86926040519a8b978896879562a718a960e01b875260048701614e78565b03925af19283156106f357600394614faa614fb793614fb0935f80516020615f3f83398151915297614fcb575b5061445461049e8b516102c5565b516102c5565b95516102c5565b9351604051908152938116941692602090a4565b806106e7614fd892611d74565b5f614f9c565b60405163e356c1d360e01b81528061093a8560048301610df7565b61500c90602080825183010191016130a3565b6150176002546102c5565b6001600160a01b0381811692831561035e57615038610c06610e8585611b12565b614fde57805160ff16600319810161511f575060e081019161505d61049e84516102c5565b1561035e57610100820193845115612f305760c083019561508d61508461049e89516102c5565b83885191614d80565b60a084019461509c86516102c5565b916150aa6107bd8a516102c5565b916150bb6101208a51980151151590565b823b15610299575f946150e586926040519a8b978896879562a718a960e01b875260048701614e78565b03925af19283156106f357600194614faa614fb793614fb0935f80516020615f3f83398151915297614fcb575061445461049e8b516102c5565b60405163764986cd60e01b815290819061093a906004830161029d565b9061514682612564565b52565b9081518082526020808093019301915f5b828110615168575050505090565b83516001600160a01b03168552938101939281019260010161515a565b9061525f6152276152136151ee6101c06151a086885161513c565b6020878101516001600160a01b031690870152604087015160408701526151d06060880151606088019015159052565b6080870151608087015260a0870151908060a0880152860190611577565b60c0868101516001600160a01b03169086015260e086015185820360e0870152611577565b610100808601519085830390860152615149565b6101208481015162ffffff1690840152610140848101516001600160a01b031690840152610160808501519084830390850152611577565b610180808401516001600160a01b031690830152916101a08091015191015290565b919392615298604092606085526060850190615185565b60208401959095526001600160a01b0316910152565b906152c6602091949394604084526040840190615185565b6001600160a01b03909416910152565b9081516152e281612564565b6152eb81612564565b8061536357505061531073__$eead1dc2f2c0157b077e40db78682c4da7$__91615a40565b61531b6005546102c5565b823b156102995760405163330277f960e01b8152925f9284928391829161534591600484016152ae565b03915af480156106f3576153565750565b806106e7610e3d92611d74565b61536c81612564565b6001810361537f575050610e3d90615abc565b61538881612564565b600281036153fb57506153af73__$eead1dc2f2c0157b077e40db78682c4da7$__92615a40565b823b1561029957604051639c1ceedb60e01b8152925f92849283918291615345917f00000000000000000000000000000000000000000000000000000000000000009160048501615281565b61540481612564565b60038103615477575061542b73__$eead1dc2f2c0157b077e40db78682c4da7$__92615a40565b823b15610299576040516359b4bda560e11b8152925f92849283918291615345917f00000000000000000000000000000000000000000000000000000000000000009160048501615281565b80615483600492612564565b0361383357610e3d91615754565b9190825161549e81612564565b6154a781612564565b806154cd5750505061531073__$eead1dc2f2c0157b077e40db78682c4da7$__91615a40565b6154d681612564565b600181036154e9575050610e3d91615ce2565b90915061538881612564565b80156145c457411561568657804710615589575b80471061556a575f8080808441612710f16155226120dd565b50156155585760405190815241907f4f7211408260504800d93de91fdae93096b5ffc1752acbf6ba5a10f31a52fbc390602090a2565b604051630e364cfb60e41b8152600490fd5b604051633ebbc33760e01b815290819061093a904790600484016124f1565b7f00000000000000000000000000000000000000000000000000000000000000006001600160a01b0316806155bf575b50615509565b6155c9478361359f565b6040516370a0823160e01b8152602081806155e73060048301610df7565b0381865afa9081156106f3575f91615667575b508082101561565f5750905b81615612575b506155b9565b803b1561029957604051632e1a7d4d60e01b815260048101929092525f908290602490829084905af180156106f35761564c575b8061560c565b806106e761565992611d74565b5f615646565b905090615606565b615680915060203d60201161182b5761181b8183611dc2565b5f6155fa565b60405163fb0f9f1360e01b8152600490fd5b60405163095ea7b360e01b5f9081526001600160a01b03909316600452602483905290929160209060448180875af19260015f51148416156156db575b50604052565b60018492941516614026573b15153d151616915f6156d5565b92916040519163095ea7b360e01b5f5260018060a01b031660045260245260205f60448180875af19260015f51148416156156db5750604052565b906020828203126102995781516001600160401b038111610299576115ad9201612979565b610160810151916157708351936020808096830101910161402f565b6001600160a01b0393841697948416969294929391928615615a2e576040938451936370a0823160e01b9384865260049584818d81806157b2308d8301610df7565b03915afa9081156106f3575f91615a11575b508a81106159f5575086518581529084828e81806157e4308d8301610df7565b03915afa9384156106f357858c918f8f908e918e8e985f9b6159b5575b5094615898946158b3989461588a945f9b99946158236101408f9b01516102c5565b600b80546001600160a01b0319166001600160a01b0383161790559a516001600160a01b03918216958101958652918116602086015262ffffff909216604085015260029290920b60608401529490961693909316608084015260a0830152839160c00190565b03601f198101835282611dc2565b838a519586809581946348c8949160e01b83528d830161159c565b0393165af180156106f357615993575b50600b80546001600160a01b031916905584519283528183806158e830888301610df7565b03818d5afa80156106f3576101a093615909935f92615976575b505061359f565b93015180841061595c5750505162ffffff9092168252602082019290925260408101919091527f957c848bf87091a2c84fe69846c6538d9328319e4bc0ebab69e5092864cf36fb9080606081015b0390a3565b61093a919251938493633ae71ee360e11b855284016124f1565b61598c9250803d1061182b5761181b8183611dc2565b5f80615902565b6159ae903d805f833e6159a68183611dc2565b81019061572f565b505f6158c3565b868b97929499959a9893969c503d83116159ee575b6159d48183611dc2565b81016159df91612850565b9a949196989397929095615801565b503d6159ca565b8751633443287760e11b815290819061093a908d838b016124f1565b615a289150853d871161182b5761181b8183611dc2565b5f6157c4565b60405163396039b560e21b8152600490fd5b6040516101c081016001600160401b03811182821017611d87575f916101a091604052828152826020820152826040820152826060820152826080820152606060a08201528260c0820152606060e082015260606101008201528261012082015282610140820152606061016082015282610180820152015290565b615ac960c08201516102c5565b90813b15615cd057615ae0610c06610e8584611b12565b615cb5576020808201615af961049e61049e83516102c5565b9060409283519281846370a0823160e01b928382528180615b1d3060048301610df7565b03915afa9384156106f3575f94615c96575b50848601938451808210615c7b575050615b58615b4f61049e85516102c5565b88865191614d80565b5f8060e08801518481519101828b5af1615b706120dd565b50615b828861445461049e87516102c5565b15615c6a5781615b9c61049e61049e6101808a01516102c5565b865192835282908180615bb23060048301610df7565b03915afa9182156106f3575f92615c4d575b50508015615c42576101a090945b0151808510615c25575090615957615bf95f80516020615e9f8339815191529493516102c5565b9151925192835260208301949094525f60408301526001600160a01b0390811694169281906060820190565b8351633ae71ee360e11b815290819061093a9087600484016124f1565b506101a05f94615bd2565b615c639250803d1061182b5761181b8183611dc2565b5f80615bc4565b845163eb94068160e01b8152600490fd5b61093a8751928392633443287760e11b8452600484016124f1565b615cae919450823d841161182b5761181b8183611dc2565b925f615b2f565b60405163e356c1d360e01b81528061093a8460048301610df7565b604051633e65e84d60e01b8152600490fd5b615cef60c08201516102c5565b91823b15615cd057615d06610c06610e8585611b12565b614fde57602090818301615d2061049e61049e83516102c5565b9160409384519381856370a0823160e01b928382528180615d443060048301610df7565b03915afa9485156106f3575f95615e7f575b50858701948551808210615e64575050615d7f615d7661049e86516102c5565b89875191614d80565b5f8060e08901518481519101828c5af1615d976120dd565b50615da98961445461049e88516102c5565b15615e535781615dc361049e61049e6101808b01516102c5565b875192835282908180615dd93060048301610df7565b03915afa9182156106f3575f92615e36575b505081811115615e2a576101a091615e029161359f565b940151808510615c25575090615957615bf95f80516020615e9f8339815191529493516102c5565b50506101a05f94615bd2565b615e4c9250803d1061182b5761181b8183611dc2565b5f80615deb565b855163eb94068160e01b8152600490fd5b61093a8851928392633443287760e11b8452600484016124f1565b615e97919550823d841161182b5761181b8183611dc2565b935f615d5656fe579ca3e474a2af9880a8759818e54c11af6f6d3d8e3cd724a0fd2ac91f7afc5b8be0079c531659141344cd1fd0a4f28419497f9722a3daafe3b4186f6b6457e04130bb7c7a51b9b1fb1a818a35e1abcd26d272b7854e2de468a0f631d2f62de3e01920728668d89f092ef9cb92036bad90964bb622eec508d2c3ffe1d582efb29b779b17422d0df92223018b32b4d1fa46e071723d6817e2486d003becc55f00cdcca1c6fdf4b07c780d0b84fa00868436c8da5adf3d22e75f0bcf30251a73b7df5e5f93aa077c6a3649eb54e81be5583cb922d3dcb50745e5a51fa72bd36098b501d3fa59280fc919f0f195a935dd32cf7986ef132b571ce55fd781ad02a1d3","linkReferences":{"src/libraries/SwapLegExecutorLib.sol":{"SwapLegExecutorLib":[{"start":22304,"length":20},{"start":22463,"length":20},{"start":22587,"length":20},{"start":22749,"length":20}]}}},"methodIdentifiers":{"ACTION_PAY_COINBASE()":"2b8ad037","FLASH_PROVIDER_BALANCER()":"0603d94d","FLASH_PROVIDER_MORPHO()":"2be06d02","PROTOCOL_AAVE_V2()":"12bf17db","PROTOCOL_AAVE_V3()":"a0a0cb53","PROTOCOL_INTERNAL()":"e99d23cf","PROTOCOL_MORPHO_BLUE()":"82e2dda7","aavePool()":"a03e4bc3","aaveV2LendingPool()":"e822eb32","acceptOwnership()":"79ba5097","allowedFlashProviders(uint8)":"5a908609","allowedTargets(address)":"b8fe8d5f","allowedV4Hooks(address)":"d1c5c84a","balancerVault()":"158274a5","configureMorpho(address)":"18c98f2a","execute(bytes)":"09c5eabe","morphoBlue()":"e8ce1bfa","onMorphoFlashLoan(uint256,bytes)":"31f57072","operator()":"570ca735","owner()":"8da5cb5b","paraswapAugustusV6()":"86e17f06","pause()":"8456cb59","paused()":"5c975abb","pendingOwner()":"e30c3978","receiveFlashLoan(address[],uint256[],uint256[],bytes)":"f04f2707","renounceOwnership()":"715018a6","rescueAllERC20(address,address)":"d2cd0cd8","rescueERC20(address,address,uint256)":"b2118a8d","rescueERC20Batch(address[],address)":"5b7bd4f5","rescueETH(address,uint256)":"099a04e5","setAaveV2LendingPool(address)":"2a6f182b","setFlashProvider(uint8,address)":"a93cefbe","setMorphoBlue(address)":"3f14b0de","setV4HookAllowed(address,bool)":"96bd0952","transferOwnership(address)":"f2fde38b","uniV2Router()":"958c2e52","uniV3Router()":"5fafa589","unlockCallback(bytes)":"91dd7346","unpause()":"3f4ba83a","weth()":"3fc8cef3"}}}}}