{"src/libraries/ParaswapDecoderLib.sol":{"ParaswapDecoderLib":{"abi":[{"type":"function","name":"decodeAndValidate","inputs":[{"name":"cd","type":"bytes","internalType":"bytes"},{"name":"caller","type":"address","internalType":"address"}],"outputs":[{"name":"srcToken","type":"address","internalType":"address"},{"name":"dstToken","type":"address","internalType":"address"},{"name":"fromAmount","type":"uint256","internalType":"uint256"},{"name":"minAmountOut","type":"uint256","internalType":"uint256"},{"name":"isExactIn","type":"bool","internalType":"bool"}],"stateMutability":"pure"},{"type":"error","name":"InvalidParaswapCalldata","inputs":[]},{"type":"error","name":"InvalidParaswapSelector","inputs":[{"name":"selector","type":"bytes4","internalType":"bytes4"}]},{"type":"error","name":"SwapRecipientInvalid","inputs":[{"name":"recipient","type":"address","internalType":"address"}]},{"type":"error","name":"ZeroSrcOrDstToken","inputs":[]}],"userdoc":{},"devdoc":{},"evm":{"bytecode":{"object":"6080806040523461001a576106a7908161001f823930815050f35b5f80fdfe60806040526004361015610011575f80fd5b5f3560e01c63195fc5f714610024575f80fd5b60403660031901126100eb576001600160401b036004358181116100eb57366023820112156100eb578060040135918083116100ef5760405190601f8401601f19908116603f01168201908111828210176100ef5760405282815236602484840101116100eb575f6020846100e79560246100b0960183860137830101526100aa610103565b90610119565b604080516001600160a01b0396871681529590941660208601529284019190915260608301521515608082015290819060a0820190565b0390f35b5f80fd5b634e487b7160e01b5f52604160045260245ffd5b602435906001600160a01b03821682036100eb57565b9190600490818451106102bd5760208401519360ff610137866102cd565b1694600b861480156102b3575b61028b575084158015610281575b8015610278575b801561026e575b8015610264575b801561025a575b946001811161020c575061018190610672565b9793969295919490949596975b6001600160a01b03918216818316908114159081610202575b506101db5750808816159081156101d0575b506101c15750565b6040516308a3d4f760e41b8152fd5b90508616155f6101b9565b6040516317067e5d60e31b81526001600160a01b0390911681840190815281906020010390fd5b905015155f6101a7565b6005811161022f575061021e906105f9565b97939692959194909495969761018e565b60068103610241575061021e906105c4565b6007036102515761021e9061058e565b61021e9061042a565b506008851461016e565b5060078514610167565b5060068514610160565b50828514610159565b5060028514610152565b604051634cfbb97f60e01b81526001600160e01b031990911681850190815281906020010390fd5b50600a8614610144565b506040516312e9836360e11b8152fd5b6001600160e01b0319166371f56acf60e11b81146103b057637f45767560e01b81146103aa576343b5017b60e11b81146103a457635e94e28d60e01b811461039e57633a2ecedb60e21b8114610398576353b7a75b60e11b811461039257630d00e29960e11b811461038c576371bf692b60e11b81146103865763d85ca17360e01b811461038057636b76917360e11b811461037a5763da35bb0d60e01b1461037557600b90565b600a90565b50600990565b50600890565b50600790565b50600690565b50600390565b50600290565b50600590565b50600490565b50600190565b505f90565b634e487b7160e01b5f52601160045260245ffd5b90602482018092116103d757565b6103b5565b60040190816004116103d757565b90602082018092116103d757565b9061010082018092116103d757565b919082018092116103d757565b908160051b91808304602014901517156103d757565b9081519161012883106104bf576024810151604482015160a4830151610104840151929391926001600160a01b039182169287610466836103c9565b116104bf5781019661048561048060248a01519384610407565b6103c9565b118015610584575b6104bf57604487015160e01c6352bbbe2981036104d15750610164116104bf5761018881610168880151169601511693565b6040516312e9836360e11b8152600490fd5b9196909163945bcec9036104bf57606482106104bf57604881015196608882015191836104fd846103c9565b116104bf57828101906048820151948515908115610573575b8115610547575b506104bf576001938360686048940151169560051b01010151169614600114610544579493565b93565b905061056c610567610558876103dc565b61056189610414565b90610407565b6103ea565b115f61051d565b6001600160fb1b0387119150610516565b506004811061048d565b610164808251106104bf5760018060a01b03918260a482015116938360c4830151169360e4830151936101048401519301511690565b610124808251106104bf5760018060a01b03918260648201511693836084830151169360a48301519360c48401519301511690565b6101648151106104bf57602481015190601f821615801590610668575b801561064e575b6104bf57019060018060a01b038060248401511692816044820151169260648201519260e460848401519301511690565b5061066061065b836103dc565b6103f8565b81511061061d565b5060608210610616565b610104808251106104bf5760018060a01b03918260448201511693836064830151169360848301519360a4840151930151169056","linkReferences":{}},"methodIdentifiers":{"decodeAndValidate(bytes,address)":"195fc5f7"}}}}}